:100000000C9462000C948A000C948A000C948A0070
:100010000C948A000C948A000C948A000C948A0038
:100020000C948A000C948A000C948A000C9476023A
:100030000C948A000C948A000C948A000C948A0018
:100040000C942C020C948A000C948A000C948A0064
:100050000C948A000C948A000C948A000C948A00F8
:100060000C948A000C948A000000000024002700F1
:100070002A0000000000250028002B0000000000DE
:1000800023002600290004040404040404040202DA
:100090000202020203030303030301020408102007
:1000A0004080010204081020010204081020000012
:1000B0000008000201000003040700000000000027
:1000C00000000A0411241FBECFEFD8E0DEBFCDBF71
:1000D00011E0A0E0B1E0EAE3F9E002C005900D9282
:1000E000A030B107D9F721E0A0E0B1E001C01D9236
:1000F000A233B207E1F710E0C2E6D0E004C02197D6
:10010000FE010E949504C136D107C9F70E9437034A
:100110000C949B040C940000CF92DF92EF92FF921C
:10012000DC01A03282E0B8070CF03EC0B7FD06C08B
:10013000A53BB1052CF0A4EBB0E002C0A0E0B0E01C
:100140008091300128E830E06901C81AD10887FDA4
:10015000D394CC0CDD1CCC0CDD1C0D2C000CEE085B
:10016000FF088091310128E532E0281B310987FD25
:100170003395220F331F220F331FA901330F660B54
:10018000770B9A01AB012C193D094E095F090E94BA
:10019000500424EB30E040E050E00E942604C20E00
:1001A000D31EE41EF51ED60190912F019C3098F5C8
:1001B0008091300148E850E0481B510987FD539574
:1001C000440F551F440F551FA417B5078CF080919D
:1001D000310128E532E0281B310987FD3395220FD4
:1001E000331F220F331FAD012A173B070CF4A9015F
:1001F00042505109440F551F2FB7F894892F90E0B2
:10020000FC01EE0FFF1F8E0F9F1FFC01E55FFE4FED
:10021000528341832FBFFF90EF90DF90CF900895DE
:10022000833081F028F4813099F08230A1F0089574
:100230008730A9F08830B9F08430D1F48091800003
:100240008F7D03C0809180008F7780938000089518
:1002500084B58F7702C084B58F7D84BD0895809169
:10026000B0008F7703C08091B0008F7D8093B00085
:100270000895CF93DF93282F30E0F901E255FF4F27
:100280008491F901E656FF4FD491F901EA57FF4FE7
:10029000C491CC2391F081110E941001EC2FF0E069
:1002A000EE0FFF1FE458FF4FA591B491EC91ED23A1
:1002B00081E090E021F480E002C080E090E0DF91F6
:1002C000CF9108951F93CF93DF93282F30E0F9014A
:1002D000E255FF4F8491F901E656FF4FD491F901A1
:1002E000EA57FF4FC491CC23C1F0162F81110E9411
:1002F0001001EC2FF0E0EE0FFF1FEE58FF4FA5911D
:10030000B4919FB7F894111104C08C91D095D82363
:1003100002C0EC91DE2BDC939FBFDF91CF911F9148
:100320000895CF93DF9390E0FC01E656FF4F2491B0
:10033000FC01EA57FF4F8491882361F190E0880F18
:10034000991FFC01E859FF4FC591D491FC01EE586B
:10035000FF4FA591B491611109C09FB7F8948881AE
:10036000209582238883EC912E230BC0623061F4A8
:100370009FB7F8948881322F309583238883EC913E
:100380002E2B2C939FBF06C08FB7F894E8812E2B9D
:1003900028838FBFDF91CF9108953FB7F894809164
:1003A000070190910801A0910901B0910A0126B5B9
:1003B000A89B05C02F3F19F00196A11DB11D3FBF9D
:1003C000BA2FA92F982F8827820F911DA11DB11D2B
:1003D000BC01CD0142E0660F771F881F991F4A9527
:1003E000D1F708958F929F92AF92BF92CF92DF92F2
:1003F000EF92FF926B017C010E94CD014B015C01E9
:10040000C114D104E104F104F1F00E94CD01DC013A
:10041000CB0188199909AA09BB09883E9340A10517
:10042000B10570F321E0C21AD108E108F10888EEA5
:10043000880E83E0981EA11CB11CC114D104E104F4
:10044000F10419F7DDCFFF90EF90DF90CF90BF90D0
:10045000AF909F908F9008951F920F920FB60F92BA
:1004600011242F933F938F939F93AF93BF938091CA
:10047000030190910401A0910501B0910601309112
:10048000020123E0230F2D3720F40196A11DB11D99
:1004900005C026E8230F0296A11DB11D209302017D
:1004A0008093030190930401A0930501B09306018A
:1004B0008091070190910801A0910901B0910A0172
:1004C0000196A11DB11D8093070190930801A0938F
:1004D0000901B0930A01BF91AF919F918F913F9114
:1004E0002F910F900FBE0F901F9018951F920F9293
:1004F0000FB60F9211242F933F934F935F936F93F7
:100500007F938F939F93AF93BF93EF93FF938091CC
:10051000010187FF05C010928500109284001BC066
:1005200020910101022E000C330B8091000190E01C
:100530002817390784F480910101082E000C990BCB
:10054000FC01EE0FFF1F8E0F9F1FFC01E55FFE4FAA
:10055000808186FD15C0809101018F5F809301012C
:1005600020910101022E000C330B8091000190E0DC
:1005700028173907C4F4809101018C3064F113C04D
:1005800080910101082E000C990BFC01EE0FFF1F5A
:100590008E0F9F1FFC01E55FFE4F808160E08F732F
:1005A0000E946201D8CF80918400909185000496CA
:1005B00080349C4918F480E49CE905C08091840053
:1005C00090918500049690938900809388008FEF26
:1005D000809301013BC0209184003091850080917F
:1005E0000101082E000C990BFC01EE0FFF1F8E0F6E
:1005F0009F1FFC01E55FFE4F81819281820F931F57
:10060000909389008093880080910101082E000C4E
:10061000990BFC01EE0FFF1F8E0F9F1FFC01E55F82
:10062000FE4F808186FF12C080910101082E000CD0
:10063000990BFC01EE0FFF1F8E0F9F1FFC01E55F62
:10064000FE4F808161E08F730E946201FF91EF9104
:10065000BF91AF919F918F917F916F915F914F91DA
:100660003F912F910F900FBE0F901F901895789487
:1006700084B5826084BD84B5816084BD85B58260A7
:1006800085BD85B5816085BD80916E008160809358
:100690006E001092810080918100826080938100C1
:1006A00080918100816080938100809180008160D1
:1006B000809380008091B10084608093B10080912C
:1006C000B00081608093B00080917A008460809354
:1006D0007A0080917A00826080937A0080917A001B
:1006E000816080937A0080917A00806880937A009C
:1006F0001092C10080912F018C3008F051C061E050
:1007000089E00E94910180912F01E82FF0E09F0184
:10071000220F331FE20FF31FE55FFE4F9081907CA5
:100720009960908310923001109231016CE00E9428
:1007300089049CE0899FB001112440E050E09B01B6
:10074000240F351FF901EE0FFF1F2E0F3F1FF90178
:10075000E55FFE4F908196FD16C04F5F5F4F4C30B6
:10076000510569F781110FC01092800082E08093DB
:1007700081001092850010928400B19A80916F00E0
:10078000826080936F00E0912F01F0E0CF01880F2D
:10079000991FE80FF91FE55FFE4F80818064808319
:1007A00060E087E00E94910161E084E00E94910195
:1007B000C0E0D0E087E00E9439010197F1F486E9BA
:1007C00090E00E948C0087E00E9439010197E9F4D3
:1007D00061E084E00E94620168EC70E080E090E0FB
:1007E0000E94F20160E084E00E94620166E970E02C
:1007F00080E090E00E94F201E6CF80E090E00E946D
:100800008C0060E084E00E946201209799F20E94CF
:100810000000D0CF809100018C30A0F491E0980FBF
:100820009093000180932F0190E0FC01EE0FFF1FD9
:100830008E0F9F1FFC01E55FFE4F88EB9BE09283CC
:10084000818308958FEF80932F010895052E97FBE4
:100850001EF400940E943D0457FD07D00E945804E6
:1008600007FC03D04EF40C943D0450954095309510
:1008700021953F4F4F4F5F4F08959095809570950C
:1008800061957F4F8F4F9F4F08950E947A04A59FD7
:10089000900DB49F900DA49F800D911D112408957B
:1008A000B7FF0C9445040E944504821B930B0895E6
:1008B000A1E21A2EAA1BBB1BFD010DC0AA1FBB1F64
:1008C000EE1FFF1FA217B307E407F50720F0A21BD6
:1008D000B30BE40BF50B661F771F881F991F1A9443
:1008E00069F760957095809590959B01AC01BD016D
:1008F000CF010895A29FB001B39FC001A39F700DC7
:10090000811D1124911DB29F700D811D1124911D17
:100910000895991B79E004C0991F961708F0961B5B
:10092000881F7A95C9F780950895EE0FFF1F0590EF
:0A093000F491E02D0994F894FFCF34
:00000001FF
